:020000040800F2
:10000000701B002001010008D14900081F300008C2
:10001000CD490008B9100008A950000800000000F0
:10002000000000000000000000000000B94C0008C3
:10003000E510000800000000D5490008BB4C00088E
:100040001B0100081B0100081B0100081B01000820
:100050001B0100081B0100081B0100081B01000810
:100060001B0100081B0100081B0100081B01000800
:100070001B0100081B0100081B0100081B010008F0
:100080001B0100081B0100081B0100081B010008E0
:100090001B0100081B0100081B0100081B010008D0
:1000A0001B0100081B0100081B0100081B010008C0
:1000B0001B0100081B0100081B0100081B010008B0
:1000C0001B0100081B0100081B0100081B010008A0
:1000D0001B0100081B0100081B0100081B01000890
:1000E0001B0100081B0100081B010008DFF80CD0F1
:1000F00000F020FE004800476D6C0008701B0020D7
:100100000648804706480047FEE7FEE7FEE7FEE7B1
:10011000FEE7FEE7FEE7FEE7FEE7FEE74B4D0008E1
:10012000ED000008202A04DB203A21FA02F0002129
:10013000704721FA02F3D040C2F1200291400843F7
:100140001946704740EA01039B0703D009E008C93C
:10015000121F08C0042AFAD203E011F8013B00F88C
:10016000013B521EF9D27047D2B201E000F8012BD8
:10017000491EFBD270470022F6E710B513460A4627
:1001800004461946FFF7F0FF204610BD30B505467E
:100190002A460B4612F8010B13F8014B08B1A04296
:1001A000F8D01CB1002802D06D1CF1E7284630BD04
:1001B000421C10F8011B0029FBD1801A704703462E
:1001C00011F8012B00F8012B002AF9D118467047CD
:1001D0000246C9B200E0401C0378002BFBD102E0CC
:1001E00003788B4203D0401E9042F9D20020704722
:1001F0000FB400B58DB010A909900B9000914FF08D
:10020000FF300A9000200C900548069005480790A2
:100210006A4609A80F9900F08BFC0DB05DF814FB3D
:100220004D0B00086B0B00082DE9FF5FD2E901A719
:100230004FF00008916999461446DDF838B04646FB
:1002400001988847054659EA0B0005D009E0A169E5
:10025000761C019888470546216A28468847002869
:10026000F5D1681C03D05FEACA7005D015E04FF0E5
:10027000FF3004B0BDE8F09F2068011D2160D0F878
:1002800000800AE05FEACA7001D108F8015BA16949
:10029000761C7F1E019888470546002F1ADD681CD2
:1002A00018D0B9F1000F0DD0E81705EBD06042115E
:1002B00020F01F0059F822102A1A01209040014214
:1002C000E0D107E0BBF1000FDCD1216A2846884766
:1002D0000028D7D0E16901988847BBF1000F07D10A
:1002E000002E05DD5FEACA7002D1002188F80010F7
:1002F000A068B84203DDBBF1000F03D017B16FF067
:100300000100B6E73046B4E72DE9FF4F087883B027
:100310009946FF2805D0491C2D2804D00024002030
:1003200008E000200BE00124F9E700EB800003EB7C
:100330004000491C0B78FF2BF7D104B14042002349
:100340000293147819461D462D2C01D02B2C04D174
:10035000521C2D2C13D000240294AA461478FF2C92
:100360000FD00A25A3FB057801FB05814FF0000C97
:1003700003FB0C11521CE3194AEB0101EEE70124C7
:10038000EAE7814453EA010002D019F5C87F06DA92
:1003900003980021C0E9001107B0BDE8F08F0025E7
:1003A000AE4E2F46DFF8B882184600F083FCCDE948
:1003B0000001B9F1000002DAC9F1000400E00446CE
:1003C0000023A74A1AEB030B42EB045A12E0E007A2
:1003D00007D02A4633463846414600F0ECF9074636
:1003E00088462A4633461046194600F0E4F9054689
:1003F0000E466410002CEAD1DDE90001B9F1000FCE
:100400005A46534606DA00F048FA3A46434600F0A8
:1004100044FA05E000F0CFF93A46434600F0CBF944
:10042000029A0AB181F00041039AC2E90001B3E7E0
:100430002DE9FF4F1F468DB0D7E901464FF0FF3839
:100440002E2045464FF000090B90B9696D1C0E989F
:100450008847396A824688470028F6D1BAF1FF3FBB
:100460000AD024F4D064002E11DDBAF12B0F08D08D
:10047000BAF12D0F0BD102E0404611B08DE744F4E4
:100480008064B9696D1C0E9888478246761E69465D
:10049000600501D52D2000E02B208DF8000001F132
:1004A000010B0DF1200809E0B9696D1C0E98884711
:1004B00082460F9844F40074761E0560002E02DD1B
:1004C000BAF1300FF0D00B998A453ED144F0800448
:1004D00006E00F99681CA9F1010944F40074086052
:1004E000B9696D1C761E0E98884782463028F0D078
:1004F0002BE00B998A4505D1200603D444F08004F3
:10050000761E18E0504604F039FF08B30DF11301D0
:10051000761E44F400748B4508D2AAF130000BF823
:10052000010B200607D5A9F1010003E0200602D443
:1005300009F101008146A00502D50F99681C0860E9
:10054000B9696D1C0E9888478246002ED1DC53E0B5
:10055000002E51DDBAF1650F02D0BAF1450F4BD133
:10056000A00549D5B9696D1C24F44074761E0E9817
:1005700088478246002E0CDD2B2804D0BAF12D0FBF
:1005800007D144F48074B9696D1C0E98884782467F
:10059000761EE00501D52D2100E02B2108F8011B76
:1005A000CDF82C8021E00DF12901761E44F4007471
:1005B00088450CD2AAF1300010F0FF0088F8000046
:1005C00002D10B99884509D908F1010806E0E00538
:1005D00001D5244801E042F20F708146B9696D1CD3
:1005E0000E98884782460F980560002E04DD50461D
:1005F00004F0C4FE0028D6D1F9690E988847FF2080
:100600008BF8000088F800000020069007904B4609
:100610006A4608A906A8FFF777FEA00502D46FF086
:1006200001002AE714F0240F0AD0E00714D1DDE915
:1006300006123868031D3B600068C0E900120BE039
:10064000DDE9060100F05AFB0146E00704D13868F5
:10065000021D3A600068016028460EE70000144061
:100660000000F03FF1D8FFFF2DE9FE4F804681EA00
:100670000300C00F0C46009021F0004123F000451C
:10068000B8EB0200A94105D24046214690461C46DF
:100690000B46024623F00040104347D0270DC7F316
:1006A0000A00C3F30A510290401A019040286BDA05
:1006B000C3F3130040F4801B0098924620B100233E
:1006C000D2EB030A63EB0B0B01985946C0F14002D1
:1006D000504600F006FA06460D4650465946019A25
:1006E00000F00EFA10EB08006141002487EA115275
:1006F00084EAE7731A4340D0009A62B3019A012A50
:100700004FEA075215DC001B61EB02014FF000427B
:1007100002EA0752CDE90042001C41F58011324641
:100720002B4600F079FA03B0BDE8F08F4046214631
:10073000F9E7001B61EB0201001C41F58013001872
:100740005B412018A2F5001747EB030140EAD57082
:10075000B6196D4111E06D084FEA360645EAC075DD
:100760004FEA0752001B61EB0201001C41F58011AA
:1007700049084FEA30000019514132462B4603B078
:10078000BDE8F04F00F039BA009801224000002384
:10079000D0EB020263EBE073009821464FEAE0746D
:1007A000B8EB000061EB0401E9E783F000435BE78D
:1007B00081F0004158E72DE9FE4F81EA030404F07F
:1007C000004421F0004100944FF0000B23F000435F
:1007D00050EA01045ED052EA03045BD0C3F30A542A
:1007E000C1F30A552C44A4F2F3340194A0FB025443
:1007F000C1F3130141F48011C3F3130343F48013D5
:1008000001FB024400FB034E840A970A44EA815428
:1008100047EA8357A4FB076802958D0A05FB078505
:100820004FEA932C04FB0C542705029D4FEA06580F
:1008300047EA1637B5EB08056EEB070C870E920EEC
:1008400047EA811742EA8312A7FB0201B6EB0B01CC
:1008500064EB00042B0D43EA0C335E1844EB1C5090
:10086000DA465146E7FB0201C5F313044FEA0B33A6
:1008700043EA14534FEA0432019C43EA0603A4F10D
:100880000C040294009CCDE900B400F0C5F903B05B
:10089000BDE8F08F00200146F9E72DE9F04D81EA2F
:1008A000030404F0004B21F0004514464FF0000A09
:1008B00023F0004150EA050220D054EA01021DD085
:1008C000C5F30A570246C5F31303C1F31300C1F37E
:1008D0000A5640F4801543F48013A7EB0608101B5A
:1008E000D64608F2FD3873EB050002D308F1010883
:1008F00001E092185B41B8F1000F03DA00200146D5
:10090000BDE8F08D00204FF48011064684460EE0CD
:10091000171B73EB050705D3121B63EB0503064397
:100920004CEA010C49084FEA300092185B4150EA4A
:100930000107EDD152EA030012D082EA040083EAF3
:100940000501084305D0101BAB4106D2012200234C
:1009500006E000224FF0004302E06FF00102531066
:100960001AEB06004CEB085110EB0A0041EB0B01AF
:10097000BDE8F04D00F041B90EB5C10F80EAE0705E
:100980000844CA07002140F233438DE80E000A46AE
:100990000B4600F041F903B000BD0EB540F2334103
:1009A00002910021CDE900110A460B4600F034F90E
:1009B00003B000BD70B5C1F30A5201F00045002438
:1009C000C1F3130140F2FF3341F480119A4201DA7E
:1009D000002070BD40F233439A42A2F2334203DC5E
:1009E0005242FFF79FFB00E090402C43F1D0404281
:1009F00070BD000030B5041E71F1000404DB4FF03F
:100A00000044404264EB0101141E73F1000405DB55
:100A10001C464FF00043524263EB04038B4208BF75
:100A2000824230BD30B5041E71F1000404DB4FF08A
:100A30000044404264EB0101141E73F1000405DB25
:100A40001C464FF00043524263EB0403994208BF37
:100A5000904230BD30B50B460146002020220124D3
:100A600009E021FA02F59D4205D303FA02F5491B7C
:100A700004FA02F52844151EA2F10102F1DC30BD92
:100A80002DE9F05F0546002092469B4688460646C3
:100A9000814640241BE02846414647462246FFF750
:100AA00041FB53465A46C01A914110D3114618468D
:100AB000224600F016F82D1A67EB01084F46224631
:100AC0000120002100F00DF817EB00094E41201E17
:100AD000A4F10104DFDC484631462A464346BDE81E
:100AE000F09F202A04DB203A00FA02F10020704730
:100AF0009140C2F1200320FA03F31943904070475C
:100B0000202A06DBCB17203A41FA02F043EAE073D1
:100B100006E041FA02F3D040C2F1200291400843BE
:100B200019467047026811441378016018467047EF
:100B3000D1600449516104491162002111611146DB
:100B400000F010B9250B0008590D0008426842B1A9
:100B5000016811F8013B23B1521EC0E9001218468A
:100B600070470121C160881E704742685AB1C3684E
:100B7000016843B983688B4205D0491E521CC0E905
:100B80000012002070474FF0FF3070470029A8BFC7
:100B90007047401C490008BF20F00100704710B4A6
:100BA000B0FA80FC00FA0CF050EA010404BF10BC5B
:100BB000704749B1CCF1200421FA04F411FA0CF188
:100BC00018BF012121430843A3EB0C01CB1D4FEAC1
:100BD00000614FEA102042BF002010BC704700EBBC
:100BE000C35010440029A4BF10BC7047401C4900EA
:100BF00008BF20F0010010BC704710B5141E73F13F
:100C0000000408DA401C41F1000192185B411A43CC
:100C100001D120F0010010BD2DE9F04D92469B4618
:100C200011B1B1FA81F202E0B0FA80F220329046BE
:100C3000FFF757FF04460F4640EA0A0041EA0B015E
:100C400053465A46084313D0114653EA010019D0BF
:100C5000C8F140025046FFF765FA05460E46504679
:100C600059464246FFF73DFF084305D0012004E006
:100C700020463946BDE8F08D0020054346EAE0767F
:100C80002C4337430A986305E40AA0EB08000022CE
:100C9000FD0A44EA47540A3002D500200146E9E73C
:100CA000010510196941DDE9084500196941BDE8F0
:100CB000F04DA2E70EB540F2334202920022CDE998
:100CC00000221346FFF7A8FF03B000BDC1F30A528C
:100CD000C1F3130140F2FF3341F480119A4202DA6A
:100CE00000200146704740F233439A42A2F2334259
:100CF00002DC5242FFF716BAFFF7F3BE01F00043E1
:100D000030B421F0004150EA010206D00A0DA2F5EC
:100D10006072C1F31301002A02DC30BC002070476E
:100D2000440F44EAC104C100E01830BC00EBC250DB
:100D3000FFF72CBF064C074D06E0E06840F00103CA
:100D400094E8070098471034AC42F6D3FFF7D2F985
:100D500094750008B4750008C0B24FF4F05100F06B
:100D600097B900002DE9F34F8BB04FF0000801F167
:100D70000C000C464FF0010B46460DF1080A01909D
:100D80006269012101989047051E2DD0252D2CD098
:100D9000216A8847C0B16269012101989047216AA0
:100DA00088470028F7D1411E62690198904700E00A
:100DB000761CA1690B988847216A88470028F7D1DB
:100DC000E1690B988847DBE7A1690B9888470746DC
:100DD000A84201D1761CD3E7E1690B9888477F1CB4
:100DE00002D1B8F1000F6FD046E1002762693D469D
:100DF0003946019890472A2804D162690121019857
:100E000090470125DFF8849262690121019890479B
:100E1000A0F130010A290AD24F45E5DC07EB870132
:100E200000EB4107303FDFD445F01005ECE7E90661
:100E300001D46FF000476C280AD04C2814D06828E1
:100E400015D06A280DD074281CD07A281AD01DE03D
:100E500062690121019890476C2802D045F0040591
:100E600014E045F002050DE045F020050AE0626956
:100E7000012101989047682802D045F0080505E057
:100E800045F400656269012101989047C4E9015762
:100E900065283DD019DC58287AD00CDC452837D09D
:100EA00004DC252826D0412831D131E046282FD036
:100EB00047282CD12CE05B2877D0612828D06328E4
:100EC0007CD0642823D15AE0D0E06F2848D008DCD9
:100ED00066281DD067281BD0692821D06E2816D11E
:100EE00027E0702845D0732868D0752847D0782827
:100EF0000DD14DE0A1690B988847054625283FF4A0
:100F000069AFE1690B9888476D1C3FF46AAFB3E0A5
:100F100023466A466FF001000B99FFF789FA9EE0BD
:100F200045F040006060A80723464FF0000236D429
:100F30003EE0E8077FF447AF2068011D21600068AC
:100F4000290501D506701BE7290701D5068017E79B
:100F5000A90703D5F117C0E9006111E706600FE7A3
:100F600045F040006060A80723464FF0080216D401
:100F70001EE040F60E0125EA0100606016E045F033
:100F800040006060A80723464FF00A0207D40FE034
:100F900045F040006060A80708D5234610226FF096
:100FA00001000B99AFF3008059E007E023461022BF
:100FB0006FF001000B99AFF3008050E04FF0000993
:100FC0004F464B46632802D05B2806D040E0E80637
:100FD00001D40120A06001273AE062690121019853
:100FE00090475E2805D14FF0010962694946019892
:100FF0009047216939B900210A46534643F8212018
:10100000491C0829FADBB0B3216969B9C11700EBA3
:10101000D16253110AEB830122F01F02821A0120D0
:101020000B68904003430B6062690121019890476F
:101030005D28E8D1B9F1000F09D00020514651F8E0
:101040002020D24341F82020401C0828F7DB02ABC7
:10105000224600976FF001000B99FFF7E5F8002892
:101060000CDA401C08D1BBF1000F05D04FF0FF3067
:101070000DB0BDE8F08FFFE74046F9E7E90701D181
:1010800008F1010806444FF0000B79E6CCCCCC0CFB
:101090007F2801D9002208E0064A02EB5002C0076F
:1010A000127800D1120902F00F020120904008408E
:1010B000704700000875000800BFFEE7704710B5D4
:1010C0000446204600F0ECF810BD10B5044603E0DD
:1010D0004FF47A7000F0E4F8201EA4F101018CB204
:1010E000F6D110BD704700003EB502F061FA02F083
:1010F0004FFD002202A92E4801F06AFB9DF808006E
:101100008DF800009DF809008DF801009DF80A0097
:101110001430C0B28DF802002648006840F0040088
:10112000244908600846006840F008000860002272
:1011300069461F4801F04EFC5C211FA0FFF748F8EC
:1011400028B15C211CA0FFF743F8401C00E01AA066
:1011500005462F21FFF73CF888B15C2116A0FFF768
:1011600037F828B15C2114A0FFF732F8401C00E0EA
:1011700011A005462F21FFF72BF8401C0BE05C2146
:101180000DA0FFF725F828B15C210BA0FFF720F890
:10119000401C00E008A004461E2221460DA003F0DA
:1011A00085FF642000F07CF800F092FE3EBD000058
:1011B0008C000020007000406170706C6963617485
:1011C000696F6E5C4C6F7765725F6D6F64652E63DF
:1011D000000000005B25733A25645D20BDF8C8EB74
:1011E000B5CDB9A6BAC40D0A0000000072B600BFA2
:1011F000FEE7000070B502F0E5F902F0D9FC5C21D1
:101200001AA0FEF7E5FF28B15C2118A0FEF7E0FF69
:10121000401C00E015A005462F21FEF7D9FF88B13C
:101220005C2112A0FEF7D4FF28B15C210FA0FEF7CD
:10123000CFFF401C00E00DA005462F21FEF7C8FFA0
:10124000401C0BE05C2109A0FEF7C2FF28B15C2125
:1012500006A0FEF7BDFF401C00E004A004463522B6
:10126000214609A003F022FF70BD00006170706C80
:1012700069636174696F6E5C4C6F7765725F6D6FE7
:1012800064652E63000000005B25733A25645D20D1
:10129000CDCBB3F6B5CDB9A6BAC40D0A0000000097
:1012A00070B5044600F0A6F906462546681C10B144
:1012B00004480078054400BF00F09CF9801BA84258
:1012C000FAD370BD080000202DE9F847034600223C
:1012D00094466EE14FF0010808FA02F4D1F800805C
:1012E00008EA0400A0427DD1DFF8DCA2D1F8048036
:1012F000A8EB0A09D0453AD014DCB8F1030F50D05E
:1013000009DCB8F1000F31D0B8F1010F1CD0B8F1F1
:10131000020F49D120E0B8F1110F18D0B8F1120F27
:1013200042D11EE0B9F5881F25D006DCB9F5803F13
:1013300020D0B9F5801F37D11AE0B9F5001F18D0B9
:10134000B9F5041F30D117E0D1F80CC02DE0D1F869
:101350000C8008F1040C28E0D1F80C8008F1080C8E
:1013600023E0D1F80C8008F10C0C1EE000BF00BF98
:1013700000BF00BF00BF00BFD1F80880B8F1000F68
:1013800002D14FF0040C0BE0D1F80880B8F1010F46
:1013900003D14FF0080C1C6102E04FF0080C5C61B7
:1013A00003E04FF0000C00E000BF00BFFF2801D8B1
:1013B000984601E003F104084646FF2802D84FEAA8
:1013C000820803E0A2F108084FEA88084746D6F8E9
:1013D00000804FF00F0909FA07F928EA09080CFA0A
:1013E00007F900E088E048EA0908C6F80080D1F86B
:1013F000048008F08058B8F1805F7DD100BFDFF82D
:10140000CC81D8F8188048F00108DFF8C091C9F8FD
:101410001880C846D8F8188008F00108CDF8008078
:1014200000BF00BF4FEAB9384FEA920958F8295077
:101430004FEA82784FEA18794FF00F0808FA09F856
:1014400025EA0805DFF88881434502D14FF00008FE
:1014500016E0DFF88081434502D14FF001080FE02C
:10146000DFF87481434502D14FF0020808E0DFF84D
:101470006C81434502D14FF0030801E04FF00408AE
:101480004FEA82794FEA197908FA09F848EA05051E
:10149000DFF84C814FEA920948F82950D1F80480CE
:1014A00008F48018B8F5801F0AD1DFF83881D8F821
:1014B000008048EA0008DFF82C91C9F8008009E0B4
:1014C000DFF82081D8F8008028EA0008DFF81491BE
:1014D000C9F80080D1F8048008F40018B8F5001F9E
:1014E00010D1DFF8008108F10408D8F8008048EA3C
:1014F0000008DFF8F09000E05AE009F10409C9F8AB
:1015000000800DE0DFF8DC8008F10408D8F80080E6
:1015100028EA0008DFF8CC9009F10409C9F8008036
:10152000D1F8048008F40038B8F5003F0ED1DFF898
:10153000B480A8F10408D8F8008048EA0008DFF871
:10154000A490A9F10409C9F800800DE0DFF89480A7
:10155000A8F10408D8F8008028EA0008DFF8849091
:10156000A9F10409C9F80080D1F8048008F4803892
:10157000B8F5803F0ED1DFF86C80A8F10808D8F8E4
:10158000008048EA0008DFF85C90A9F10809C9F872
:1015900000800DE0DFF84C80A8F10808D8F8008042
:1015A00028EA0008DFF83C90A9F10809C9F8008092
:1015B000521CD1F8008028FA02F8B8F1000F7FF42D
:1015C00089AEBDE8F887000000001110001002404D
:1015D00000080140000C01400010014000140140CF
:1015E00008000140080401400AB1016101E00B0458
:1015F0000361704701480068704700000000002048
:101600000148006870470000E8F7FF1F01480068C4
:1016100070470000ECF7FF1F0148006870470000AA
:10162000F0F7FF1F70B504460CB9012070BD94F8A7
:101630003D0028B9002084F83C00204600F046FB1D
:10164000242084F83D002068006820F00100216813
:1016500008602068006840F4004021680860206845
:10166000006820F400402168086000F027FE05466D
:101670005C496068884206D85B48854201D20120F7
:1016800007E0002005E05948854201D2012000E032
:101690000020012800D1C9E75548B5FBF0F62068C5
:1016A000406820F03F003043216848604D49606841
:1016B000884201D8701C07E04FF4967070434FF4D5
:1016C0007A71B0FBF1F0401C2168096A21F03F01FA
:1016D00008432168086243496068884214D8681E3C
:1016E00061684900B0FBF1F0401CC0F30B00042816
:1016F00001D204203DE0681E61684900B0FBF1F0B2
:10170000401CC0F30B0034E0A06838B9681E616863
:1017100001EB4101B0FBF1F0401C0AE0681E61687A
:1017200001EBC10202EB0111B0FBF1F0401C40F4EF
:101730008040C0F30B0008B901201AE0A06848B946
:10174000681E616801EB4101B0FBF1F0401CC0F381
:101750000B000CE0681E616801EBC10202EB011195
:10176000B0FBF1F0401CC0F30B0040F4804040F4AB
:1017700000402168C9694CF6FF7291430843216813
:10178000C861D4E9070108432168096821F0C00154
:10179000084321680860D4E9031008432168896878
:1017A00048F2FF329143084321688860D4E905017B
:1017B00008432168C96821F0FF0108432168C86017
:1017C0002068006840F00100216808600020206463
:1017D000202084F83D000020206384F83E0000BFF4
:1017E00024E70000A086010080841E0000093D005F
:1017F00040420F002DE9FE4F04460F4690469946A1
:10180000DDE90CAB0E9E00200290FFF7F3FE0546CB
:1018100094F83D00202872D119230122CE49204698
:10182000009501F070FD10B10220BDE8FE8F00BFF1
:1018300094F83C00012801D10220F6E7012084F849
:101840003C0000BF2068006800F0010028B9206853
:10185000006840F00100216808602068006820F4FA
:10186000006021680860222084F83D00402084F850
:101870003E0000202064C4F824A0A4F82AB0608DA3
:101880002085B648E0624B46424639462046CDE9BF
:10189000006501F0E5FB08B10120C6E7208D88B99D
:1018A00000BF002001902068406901902068806995
:1018B000019000BF00BF2068006840F400702168FC
:1018C00008604BE0208D01281AD12068006820F4C0
:1018D00080602168086072B600BF00200190206817
:1018E0004069019020688069019000BF00BF2068B6
:1018F000006840F400702168086062B62EE029E1BB
:10190000208D022819D12068006840F40060216809
:10191000086072B600BF0020019020684069019005
:1019200020688069019000BF00BF2068006820F433
:1019300080602168086062B610E02068006840F4AA
:1019400080602168086000BF002001902068406925
:10195000019020688069019000BF00BFEBE0208DFE
:1019600003287DD8208D012815D12A4631462046EE
:1019700001F0A5FD08B1012057E720680069616A00
:101980000870606A401C6062208D401E2085608D5A
:10199000401E6085CFE0208D02282CD133460022E6
:1019A0006F492046009501F0AEFC08B101203CE7EC
:1019B00072B62068006840F40070216808602068F2
:1019C0000069616A0870606A401C6062208D401E78
:1019D0002085608D401E608562B620680069616A5E
:1019E0000870606A401C6062208D401E2085608DFA
:1019F000401E60859FE033460022594920460095ED
:101A000001F081FC08B101200FE72068006820F494
:101A100080602168086072B620680069616A087099
:101A2000606A401C6062208D401E2085608D401ED3
:101A300060854C4800681921B0FBF1F04FF47A71D1
:101A4000B0FBF1F0C0EBC00000EB8000029000BFE3
:101A50000298401E02900298A8B90020206300E07E
:101A600039E0202084F83D00002084F83E00206CFE
:101A700040F02000206462B600BF002084F83C00E3
:101A800000BF0120D1E620684069C0F38000002833
:101A9000DED02068006840F400702168086020688B
:101AA0000069616A0870606A401C6062208D401E97
:101AB0002085608D401E608562B620680069616A7D
:101AC0000870606A401C6062208D401E2085608D19
:101AD000401E60852FE02A463146204601F0EFFC8B
:101AE00008B10120A1E620680069616A0870606A97
:101AF000401C6062208D401E2085608D401E6085E8
:101B000020684069C0F38000A8B1208D032805D16A
:101B10002068006820F480602168086020680069FF
:101B2000616A0870606A401C6062208D401E2085DA
:101B3000608D401E6085208D00287FF410AF20202E
:101B400084F83D00002084F83E0000BF84F83C008B
:101B500000BF6AE6022068E6020010000000FFFFF6
:101B6000040001000C0000202DE9FC5F04460F4634
:101B700090469946DDE90CAB0E9EFFF73BFD05460E
:101B800094F83D0020287DD1192301224D4920469B
:101B9000009501F0B8FB10B10220BDE8FC9F00BF2A
:101BA00094F83C00012801D10220F6E7012084F8D6
:101BB0003C0000BF2068006800F0010028B92068E0
:101BC000006840F00100216808602068006820F487
:101BD000006021680860212084F83D00402084F8DE
:101BE0003E0000202064C4F824A0A4F82AB0608D30
:101BF00020853548E0624B46424639462046CDE9CD
:101C0000006501F0DDFA08B10120C6E731E02A469F
:101C10003146204601F098FC50B1206C042805D1D3
:101C20002068006840F40070216808600120B4E773
:101C3000606A007821680861606A401C6062208DDB
:101C4000401E2085608D401E608520684069C0F37D
:101C5000800070B1208D60B1606A007821680861F1
:101C6000606A401C6062208D401E2085608D401E91
:101C70006085208D0028CAD12A463146204601F0D1
:101C80000FFB00E01CE050B1206C042805D1206857
:101C9000006840F400702168086001207DE720683A
:101CA000006840F4007021680860202084F83D003E
:101CB000002084F83E0000BF84F83C0000BF6CE7C1
:101CC00002206AE7020010000000FFFF10B586B096
:101CD0000446002002900390049005901549206866
:101CE000884225D100BF1448806940F0080012499D
:101CF00088610846806900F00800019000BF00BFBD
:101D0000C0200290122003900320059002A90B48E6
:101D1000FFF7DAFA00BF0848C06940F4001006492E
:101D2000C8610846C06900F40010019000BF00BF00
:101D300006B010BD0054004000100240000C0140ED
:101D4000034800680349097808440149086070475E
:101D5000000000200800002010B50848006840F08E
:101D6000100006490860032000F098F80F2000F0EA
:101D700007F800F02BF8002010BD00000020024002
:101D800070B504460E4800784FF47A71B1FBF0F05C
:101D90000C490968B1FBF0F5284600F047FF08B18F
:101DA000012070BD102C07D200222146501E00F0E9
:101DB00037F80548046001E00120F2E70020F0E771
:101DC000080000200C0000200400002008B500BF1F
:101DD0001148806940F001000F4988610846806918
:101DE00000F00100009000BF00BF00BF0846C069BE
:101DF00040F08050C8610846C06900F080500090F3
:101E000000BF00BF00BF0549486820F0E06040F017
:101E10000070486000BF08BD001002400000014093
:101E20002DE9F05F80460D461646002703F062F963
:101E3000074639462A46334601F00700C0F1070A33
:101E4000BAF1040F02D94FF0040A01E0C0F1070A09
:101E5000D14600F1040ABAF1070F02D24FF0000A8E
:101E600001E0A0F1030AD4464FF0010A0AFA09FA88
:101E7000AAF1010A0AEA020A0AFA0CFA4FF0010B67
:101E80000BFA0CFBABF1010B0BEA030B4AEA0B0458
:101E90002146404603F036F9BDE8F09F00BF00F050
:101EA0000702064B19684FF6FF031940044B0B431A
:101EB00043EA0221014B196000BF70470CED00E0BE
:101EC0000000FA05012001490862704700000E4237
:101ED0000748006840F002000549086005480068AE
:101EE00040F004000349086000BF00BF30BF7047E6
:101EF0000070004010ED00E02DE9F04706464FF07D
:101F00000008002500270024A146012E31D0022E12
:101F100056D0102E5FD132484468006800F08070BF
:101F200008B33048C4F38341475C04F4803078B18F
:101F30002B484068C0F340402B4911F8008004F45E
:101F4000803040B12948B0FBF8F000FB07F502E013
:101F5000274807FB00F52248406800F48000B0F5F0
:101F6000800F01D1A94603E068000321B0FBF1F91D
:101F700032E01B48046A04F44070B0F5807F05D15C
:101F800004F0020010B14FF4004918E004F440706E
:101F9000B0F5007F07D11248406A00F0020010B18E
:101FA00049F640490BE004F44070B0F5407F06D19B
:101FB0000B48006800F4003008B14FF224490BE0F0
:101FC00000F08CF906494968C1F38131491C490088
:101FD000B0FBF1F900E000BF00BF4846BDE8F08764
:101FE00000100240A8740008B874000800127A00BB
:101FF00000093D00F8B5044600260025207800F0D1
:10200000010000286BD000274348C06900F08050D1
:1020100070B900BF4048C06940F080503E49C86177
:102020000846C06900F08050009000BF00BF012743
:102030003A48006800F48070B0B93848006840F44D
:10204000807036490860FFF7D5FA064606E0FFF7CC
:10205000D1FA801B642801D90320F8BD2F480068FD
:1020600000F480700028F2D02B48006A00F440751C
:102070002DB3A08800F44070A84220D02648006A02
:1020800020F440750120264908600020086022489D
:10209000056205F0010090B1FFF7ACFA064608E0D2
:1020A000FFF7A8FA801B41F28831884201D903204A
:1020B000D3E71948006A00F002000028F0D0164863
:1020C000006A20F440706168084313490862012FD8
:1020D00004D10846C06920F08050C86100BF207854
:1020E00000F00200022807D10B48406820F440406D
:1020F000A168084308494860207800F010001028C3
:1021000007D10548406820F48000E168084302498F
:1021100048600020A1E7000000100240007000406D
:102120004004424270B504460D460CB9012070BD12
:102130005A48006800F00700A8420ED257480068CD
:1021400020F007002843554908600846006800F061
:102150000700A84201D00120E9E7207800F0020042
:1021600002281DD1207800F00400042805D14C4835
:10217000406840F4E0604A494860207800F0080078
:10218000082805D14648406840F4605044494860FA
:102190004348406820F0F000A16808434049486087
:1021A000207800F0010078B36068012806D13C482F
:1021B000006800F4003090B90120B8E76068022898
:1021C00006D13748006800F0007040B90120AEE742
:1021D0003348006800F0020008B90120A7E7304842
:1021E000406820F00300616808432D494860FFF70C
:1021F00001FA064609E0FFF7FDF9801B41F288313C
:10220000884202D9032092E707E02548406800F0A1
:102210000C006168B0EB810FEDD12048006800F040
:102220000700A8420ED91D48006820F00700284387
:102230001A4908600846006800F00700A84201D06B
:10224000012074E7207800F00400042807D1144826
:10225000406820F4E060E168084311494860207854
:1022600000F00800082808D10D48406820F46050AC
:10227000216940EAC1000A49486000F03FF8084976
:102280004968C1F30311074A515CC8400649086018
:1022900006480068FFF774FD002048E70020024070
:1022A00000100240BA7400080C0000200400002056
:1022B00001480068704700000C00002000B5FFF7DF
:1022C000F7FF04494968C1F30221034A515CC84041
:1022D00000BD000000100240CA74000800B5FFF7FE
:1022E000E7FF04494968C1F3C221034A515CC84071
:1022F00000BD000000100240CA74000870B5002143
:102300000022002400230020134D696801F00C0511
:10231000F5B1042D02D0082D19D101E00F4819E0C4
:102320000F4DC1F38346AB5D01F4803555B10A4DC5
:102330006D68C5F340450B4E725D084D5D43B5FBBE
:10234000F2F402E0084D03FB05F4204602E000BF72
:10235000024800BF00BF70BD0010024000127A00AA
:1023600096740008A674000800093D00F8B50446FC
:102370000CB90120F8BD207800F00100002878D0C9
:10238000F848406800F00C0004280CD0F54840687C
:1023900000F00C00082811D1F248406800F48030A9
:1023A000B0F5803F0AD1EF48006800F40030002803
:1023B0005FD0606800285CD10120DBE700BF606867
:1023C000B0F5803F06D1E748006840F48030E54929
:1023D000086028E0606858B9E248006820F480305E
:1023E000E04908600846006820F4802008601AE090
:1023F0006068B0F5A02F0BD1DA48006840F4802067
:10240000D84908600846006840F4803008600AE057
:10241000D448006820F48030D2490860084600683B
:1024200020F48020086000BF606888B1FFF7E2F800
:10243000054606E0FFF7DEF8401B642801D90320BB
:1024400098E7C848006800F400300028F2D010E097
:10245000FFF7D0F8054606E0FFF7CCF8401B6428EC
:1024600001D9032086E7BF48006800F40030002847
:10247000F2D1207800F00200022857D1B948406814
:1024800000F00C0050B1B748406800F00C0008287C
:1024900018D1B448406800F4803098B9B148006859
:1024A00000F0020020B12069012801D0012061E77D
:1024B000AC48006820F0F800616940EAC100A94911
:1024C000086033E02069E8B10120A7490860FFF700
:1024D00091F8054606E0FFF78DF8401B022801D968
:1024E000032047E79F48006800F002000028F2D070
:1024F0009C48006820F0F800616940EAC1009949F1
:10250000086013E0002098490860FFF773F805465B
:1025100006E0FFF76FF8401B022801D9032029E7E6
:102520009048006800F002000028F2D1207800F006
:10253000080008282DD1A069B8B101208B49086096
:10254000FFF758F8054606E0FFF754F8401B02284D
:1025500001D903200EE78348406A00F002000028FA
:10256000F2D0012002F038FA13E000207F49086021
:10257000FFF740F8054606E0FFF73CF8401B02284D
:1025800001D90320F6E67748406A00F002000028EF
:10259000F2D1207800F00400042873D1002771489C
:1025A000C06900F0805070B900BF6E48C06940F04B
:1025B00080506C49C8610846C06900F080500090A6
:1025C00000BF00BF01276A48006800F48070B0B9FE
:1025D0006748006840F4807065490860FFF70AF8B2
:1025E000054606E0FFF706F8401B642801D90320E2
:1025F000C0E65F48006800F480700028F2D000BF99
:10260000E068012806D15748006A40F001005549AA
:10261000086227E0E06858B95248006A20F00100DB
:10262000504908620846006A20F00400086219E078
:10263000E06805280BD14B48006A40F00400494986
:1026400008620846006A40F0010008620AE0454856
:10265000006A20F00100434908620846006A20F041
:102660000400086200BFE068A0B1FEF7C3FF0546A2
:1026700009E0FEF7BFFF401B41F28831884202D9D2
:10268000032077E622E03748006A00F002000028C5
:10269000EFD012E0FEF7AEFF054608E0FEF7AAFF16
:1026A000401B41F28831884201D9032062E62D485F
:1026B000006A00F002000028F0D1012F05D129485E
:1026C000C06920F080502749C86100BFE069C8B3E5
:1026D0002448406800F00C00082860D0E069022817
:1026E00048D1002020490866FEF784FF054606E031
:1026F000FEF780FF401B022801D903203AE6194863
:10270000006800F000700028F2D1206AB0F5803F28
:1027100007D11448406820F40030A16808431149EB
:102720004860D4E9080108430E49496821F474114E
:1027300008430C49486001200B490866FEF75AFF20
:10274000054607E03DE0FEF755FF401B022801D992
:1027500003200FE60348006800F000700028F2D064
:102760002FE000000010024000004242800442427C
:1027700000700040002014490866FEF73BFF054644
:1027800006E0FEF737FF401B022801D90320F1E5E0
:102790000E48006800F000700028F2D111E0E069F6
:1027A000012800D1E6E50948466806F48031206A30
:1027B000814204D106F47011606A814201D0012087
:1027C000D8E50020D6E5000000004242001002409B
:1027D0002DE9F04780460C46914600250026AA4682
:1027E0000027B8F1000F00D014B90120BDE8F08730
:1027F000D8F800004068C0F3800008B10120F5E778
:10280000404602F0CFF905464FF46160B5FBF0F7A2
:10281000B5FBF0F100FB11503C21B0FBF1F0607012
:102820004FF46160B5FBF0F100FB11503C21B0FBAF
:10283000F1F201FB1200A070182F39D31820B7FB5A
:10284000F0FAB7FBF0F100FB11702070404602F087
:102850009DF90646701C18B1AE4201D9761B01E005
:102860004FF0FF360AEB4A00C000C0EB4011C1EB4D
:102870000020A5EB00152946404602F006FA08B1F3
:102880000120B3E7701C38B12E443146404602F0B7
:10289000E5F940B10120A9E73146404602F0DEF9F2
:1028A00008B10120A2E75146404602F0C1F800E01D
:1028B0002770B9F1000F0BD0207802F0ACF820702F
:1028C000607802F0A8F86070A07802F0A4F8A07018
:1028D00000208BE770B5044600250CB9012070BDBF
:1028E000607C20B900202074204600F053F80220BC
:1028F0006074204600F0D8F818B1042060740120FC
:10290000EDE7204602F0EFF818B1042060740120D2
:10291000E5E72068406820F0070021684860A0686B
:1029200028B11B48006820F00100194908601848C8
:10293000001F006820F46070A16808431449091F53
:1029400008606068401C08B1656809E00120FFF775
:10295000D3FA05461DB9042060740120BFE76D1E3F
:10296000C5F3034021688860A8B22168C86020468A
:1029700002F0D6F818B1042060740120AFE70021FE
:10298000E17301216173A173012060740020A6E747
:10299000306C004038B504460B492068884212D19B
:1029A000FFF790FA00BF0948C06940F0006007498E
:1029B000C8610846C06900F00060009000BF00BF19
:1029C00001200349086038BD002800400010024083
:1029D0003C0442422DE9F84304460D4617460026C2
:1029E0000020009004B115B90120BDE8F88300BFB4
:1029F000207C012801D10220F7E70120207400BFCC
:102A000002206074002269462046FFF7E1FE08B10B
:102A10000120EAE79DF800004FF4616148439DF80A
:102A20000110C1EB011100EB81009DF8021000EBD9
:102A300001085FB928784FF4616148436978C1EBB8
:102A4000011100EB8100A978461812E0287801F006
:102A5000D7FF4FF4616100FB01F9687801F0D0FF06
:102A6000C0EB001009EB8009A87801F0C9FF09EB61
:102A70000006464501D20B4806443146204602F086
:102A8000EDF838B10420607400BF0020207400BF4E
:102A90000120AAE70120607400BF0020207400BF5D
:102AA00000BFA2E78051010070B5044600250CB9B3
:102AB000012070BD2068406820F00800216848604F
:102AC000FEF798FD054607E0FEF794FD401BB0F5C4
:102AD0007A7F01D90320ECE72068406800F0080005
:102AE0000028F1D00020E4E710B504460CB901201D
:102AF00010BD606A38B96068B0F5827F00D105E02A
:102B00000021E16102E00021216161610021A162F7
:102B100094F8510028B9002084F85000204600F0B5
:102B200043F8022084F851002068006820F040003B
:102B300021680860A08800F48270218901F40441B2
:102B40000843A18901F400610843217C01F00201DE
:102B50000843217D01F001010843218B01F400713C
:102B60000843217F01F0380108432021095D01F06D
:102B700080010843218D01F4005108432168086059
:102B80000421A06901EA1040216848602068C069FA
:102B900020F400602168C86100206065012084F88D
:102BA00051000020A4E7000010B586B004460020C4
:102BB00002900390049005901949206888422DD115
:102BC00000BF1848806940F4805016498861084663
:102BD000806900F48050019000BF00BF00BF08462C
:102BE000806940F0040088610846806900F00400B4
:102BF000019000BF00BFA02002900220039003209C
:102C0000059002A90848FEF75FFB402002900020D3
:102C10000390049002A90448FEF756FB06B010BDCD
:102C200000300140001002400008014070B5044629
:102C30002546681EB0F1807F01D301200FE0681E99
:102C40004FF0E02148610F214FF0FF3002F05AFAB7
:102C500000204FF0E021886107200861002070BD4E
:102C60002DE9F84F04460F4690461D46DDF828A092
:102C700094F84200202878D117B1B8F1000F02D1A2
:102C80000120BDE8F88F00206064222084F8420013
:102C90000120206300206063FEF7ACFC8346A4F8AB
:102CA0002C80A4F82E80A068B0F5805F04D1206944
:102CB00010B90026B94602E03E464FF00009002058
:102CC000288053E02068006800F01000102813D11D
:102CD00000BF0020009020680068009020684068D5
:102CE000009000BF00BF288830B102206063202020
:102CF00084F842000020C4E72068006800F020004B
:102D0000202821D146B920684068C0F30800A9F8FE
:102D1000000009F1020911E0A068B0F5805F03D05E
:102D2000A06828B9206918B920684068307004E0AC
:102D30002068406800F07F003070761C2888401CB6
:102D40002880E08D401EE0850AF1010070B1FEF799
:102D500051FCA0EB0B00504502D8BAF1000F05D191
:102D6000202084F8420003208BE70BE0E08D002850
:102D7000A8D1A08DE18D401A2880202084F842003F
:102D800000207EE702207CE710B504460CB9012044
:102D900010BDA06900B100E000BF94F8410028B95F
:102DA000002084F84000204600F02AF8242084F80F
:102DB00041002068C06820F400502168C8602046A7
:102DC00001F0FAFF2068006920F490402168086152
:102DD0002068406920F02A00216848612068C068A6
:102DE00040F400502168C86000206064202084F80E
:102DF000410084F842000020606300BFC8E7000083
:102E000010B586B00446002002900390049005900F
:102E10004D49206888422FD100BF4C48806940F45A
:102E200080404A4988610846806900F480400190EA
:102E300000BF00BF00BF0846806940F00400886101
:102E40000846806900F00400019000BF00BF4815EB
:102E50000290022003900320059002A93C48FEF74F
:102E600033FA4FF48060029000200390049002A98E
:102E70003748FEF729FA65E03649206888422ED1A6
:102E800000BF3248C06940F400303049C86108468C
:102E9000C06900F40030019000BF00BF00BF0846C9
:102EA000806940F0040088610846806900F00400F1
:102EB000019000BF00BF0420029002200390032075
:102EC000059002A92248FEF7FFF908200290002091
:102ED0000390049002A91E48FEF7F6F932E01E495D
:102EE000206888422ED100BF1848C06940F4802075
:102EF0001649C8610846C06900F48020019000BFEF
:102F000000BF00BF0846806940F00800886108469D
:102F1000806900F00800019000BF00BF0815029012
:102F2000022003900320059002A90C48FEF7CCF97B
:102F30004FF40060029000200390049002A907481B
:102F4000FEF7C2F906B010BD003801400010024083
:102F5000000801400044004000480040000C0140CF
:102F60002DE9F84F04460E46174699464FF0000AE1
:102F700094F84100202850D106B117B90120BDE8CE
:102F8000F88F00206064212084F84100FEF732FBB6
:102F90008246A784E784A068B0F5805F04D12069E9
:102FA00010B90025B04602E035464FF000081EE09B
:102FB0005346002280212046CDF8009001F07AFF90
:102FC00020B1202084F841000320D8E745B9B8F8A3
:102FD0000000C0F308002168486008F1020803E01F
:102FE0002878216848606D1CE08C401EE084E08CED
:102FF0000028DDD15346002240212046CDF8009024
:1030000001F058FF20B1202084F841000320B6E7EA
:10301000202084F841000020B1E70220AFE700BF84
:10302000FEE7014608684069C0F38020B0B16FF444
:1030300080600A68506100200863202081F83D000C
:10304000002081F83E00086C40F00400086400BFD6
:10305000002081F83C0000BF012070470020FCE701
:103060002DE9F84304460F4615469946DDE90886E2
:103070002068006840F4806021680860206800686B
:1030800040F4807021680860434600224FF001112F
:103090002046009600F037F960B12068006800F41F
:1030A0008070B0F5807F02D14FF40070206403205F
:1030B000BDE8F88307F0FE00216808613346424608
:1030C0003E49204600F07EF908B10120F0E700BF3C
:1030D000002000902068406900902068806900907E
:1030E00000BF00BF32464146204600F02DFA50B1E5
:1030F000206C042805D12068006840F40070216825
:1031000008600120D4E7B9F1010F03D1E8B22168CA
:10311000086117E0C5F3072021680861324641467F
:10312000204600F011FA50B1206C042805D1206827
:10313000006840F40070216808600120B8E7E8B238
:103140002168086132464146204600F0FDF950B141
:10315000206C042805D12068006840F400702168C4
:1031600008600120A4E72068006840F480702168AE
:103170000860434600224FF001112046009600F0FF
:10318000C2F858B12068006800F48070B0F5807F04
:1031900002D14FF400702064032089E7F8B240F0B8
:1031A000010021680861334642460449204600F088
:1031B00009F908B101207BE7002079E7020001004E
:1031C0002DE9F8430446884615469946DDE9086727
:1031D0002068006840F4807021680860334600224F
:1031E0004FF001112046009700F08DF860B1206883
:1031F000006800F48070B0F5807F02D14FF4007059
:1032000020640320BDE8F88308F0FE00216808610F
:103210003B4632462149204600F0D4F808B101204F
:10322000F0E700BF0020009020684069009020680F
:103230008069009000BF00BF3A463146204600F04A
:1032400083F950B1206C042805D12068006840F44F
:103250000070216808600120D4E7B9F1010F03D1A3
:10326000E8B22168086117E0C5F30720216808610A
:103270003A463146204600F067F950B1206C0428E8
:1032800005D12068006840F40070216808600120C2
:10329000B8E7E8B2216808610020B3E70200010046
:1032A00070B504460D46164625E02046FFF7B9FEE8
:1032B00008B1012070BD681CE8B1FEF79BF9801BC6
:1032C000A84200D8BDB920684069C0F3800090B919
:1032D00000202063202084F83D00002084F83E0078
:1032E000206C40F02000206400BF002084F83C00E7
:1032F00000BF0120DEE720684069C0F3800000289D
:10330000D3D00020D6E72DE9F04104460D461746FC
:103310001E46DDF8188038E0701CA8B3FEF76AF985
:10332000A0EB0800B04200D876BBC5F307400128E7
:103330000AD120684069A9B20840A9B2884201D1E7
:1033400001200BE0002009E020688069A9B2084054
:10335000A9B2884201D1012000E00020B84214D176
:1033600000202063202084F83D00002084F83E00E7
:10337000206C40F02000206400BF002084F83C0056
:1033800000BF0120BDE8F081FFE7C5F30740012839
:103390000AD120684069A9B20840A9B2884201D187
:1033A00001200BE0002009E020688069A9B20840F4
:1033B000A9B2884201D1012000E00020B842ABD080
:1033C0000020DFE72DE9F04104460D4616461F4672
:1033D00058E020684069C0F38020E8B120680068A8
:1033E00040F40070216808606FF4806021684861D3
:1033F00000202063202084F83D00002084F83E0057
:10340000206C40F00400206400BF002084F83C00E1
:1034100000BF0120BDE8F081701C90B3FEF7EAF810
:10342000C01BB04200D866BBC5F3074001280AD1D3
:1034300020684069A9B20840A9B2884201D10120A0
:103440000BE0002009E020688069A9B20840A9B219
:10345000884201D1012000E0002090B900202063C3
:10346000202084F83D00002084F83E00206C40F0CD
:103470002000206400BF002084F83C0000BF012031
:10348000C8E7FFE7C5F3074001280AD12068406973
:10349000A9B20840A9B2884201D101200BE0002066
:1034A00009E020688069A9B20840A9B2884201D128
:1034B000012000E0002000288BD00020AAE770B592
:1034C00004460D46164637E020684069C0F30010F8
:1034D000A0B16FF010002168486100202063202017
:1034E00084F83D00002084F83E00206C206400BF7A
:1034F000002084F83C0000BF012070BDFEF77AF880
:10350000801BA84200D8BDB920684069C0F3801074
:1035100090B900202063202084F83D00002084F82A
:103520003E00206C40F02000206400BF002084F8A2
:103530003C0000BF0120E0E720684069C0F3801034
:103540000028C1D00020D8E770B504460D461646C5
:1035500025E02046FFF765FD08B1012070BD681C1D
:10356000E8B1FEF747F8801BA84200D8BDB9206833
:103570004069C0F3C01090B900202063202084F877
:103580003D00002084F83E00206C40F020002064C4
:1035900000BF002084F83C0000BF0120DEE7206867
:1035A0004069C0F3C0100028D3D00020D6E7000047
:1035B00010B5002208210248FEF716F810BD0000E1
:1035C000000C014010B5012208210348FEF70CF859
:1035D0006420FDF774FD10BD000C01407047000031
:1035E00038B54FF48061A548FCF7C5FD0020A4491B
:1035F00008805C21A3A0FCF7EBFD28B15C21A1A011
:10360000FCF7E6FD401C00E09EA005462F21FCF7DC
:10361000DFFD88B15C219BA0FCF7DAFD28B15C21BD
:1036200098A0FCF7D5FD401C00E096A005462F2190
:10363000FCF7CEFD401C0BE05C2192A0FCF7C8FD1E
:1036400028B15C218FA0FCF7C3FD401C00E08DA0D9
:1036500004464A22214692A001F028FD9FE094A151
:103660008648FCF793FD28B193A18448FCF78EFDB2
:1036700000B195E04FF400719148FCF77CFD4FF4E8
:103680007A70904B4FF400728D4900908E48FFF78E
:10369000E7FA5C217BA0FCF79BFD28B15C2179A0B7
:1036A000FCF796FD401C00E076A005462F21FCF7B4
:1036B0008FFD88B15C2173A0FCF78AFD28B15C21E5
:1036C00070A0FCF785FD401C00E06EA005462F2190
:1036D000FCF77EFD401C0BE05C216AA0FCF778FD46
:1036E00028B15C2167A0FCF773FD401C00E065A0D9
:1036F00004465622214675A001F0D8FC7148008886
:1037000000284CDD5D495E4A128888186D490A8898
:103710006B49FCF717FD5A4800886A490988084434
:10372000574908804FF400716548FCF724FD0020DC
:10373000644908805C2153A0FCF74AFD28B15C2154
:1037400050A0FCF745FD401C00E04EA005462F218F
:10375000FCF73EFD88B15C214AA0FCF739FD28B199
:103760005C2148A0FCF734FD401C00E045A0054664
:103770002F21FCF72DFD401C0BE05C2141A0FCF744
:1037800027FD28B15C213FA0FCF722FD401C00E092
:103790003CA004466022214650A001F087FC5EE771
:1037A00000BF5C2137A0FCF713FD28B15C2135A0D8
:1037B000FCF70EFD401C00E032A005462F21FCF76F
:1037C00007FD88B15C212FA0FCF702FD28B15C2128
:1037D0002CA0FCF7FDFC401C00E02AA005462F2190
:1037E000FCF7F6FC401C0BE05C2126A0FCF7F0FC8B
:1037F00028B15C2123A0FCF7EBFC401C00E021A0D9
:1038000004466822214639A001F050FC5C211DA02D
:10381000FCF7DEFC28B15C211AA0FCF7D9FC401CA7
:1038200000E018A005462F21FCF7D2FC88B15C21EE
:1038300014A0FCF7CDFC28B15C2112A0FCF7C8FC59
:10384000401C00E00FA005462F21FCF7C1FC401CE6
:103850000BE05C210BA0FCF7BBFC28B15C2109A0AC
:10386000FCF7B6FC401C00E006A00446034B6A22AD
:10387000214622A001F01AFC38BD0000D003002030
:10388000260000202E2E5C696E7465726661636589
:103890005C496E745F415436353538522E630000F2
:1038A0005B25733A25645D2073746570310D0A00E1
:1038B00024474E47474100002447505458540000C5
:1038C000D001002024000020400100205B25733A35
:1038D00025645D2073746570320D0A005B25733AB0
:1038E00025645D2073746570330D0A005B25733A9F
:1038F00025645D2073746570340D0A005B25733A8E
:1039000025645D200A25730D0A0000003EB50446BB
:10391000002002900190009002A9C42000F072F8EB
:103920006946C52000F06EF801A9C62000F06AF8CB
:103930009DF8040000049DF8001040EA01209DF865
:103940000810084320603EBDF8B5FF20009069468E
:10395000012000F057F85C211EA0FCF739FC28B1CB
:103960005C211CA0FCF734FC401C00E019A00646BA
:103970002F21FCF72DFC88B15C2116A0FCF728FC58
:1039800028B15C2113A0FCF723FC401C00E011A02F
:1039900006462F21FCF71CFC401C0BE05C210DA00F
:1039A000FCF716FC28B15C210AA0FCF711FC401CB6
:1039B00000E008A005469DF800304C2229460CA0E6
:1039C00001F074FBEF2444F0100421463C2000F089
:1039D0003DF8F8BD2E2E5C696E7465726661636594
:1039E0005C496E745F4453333535332E63000000F9
:1039F0005B25733A25645D206964203D2025780DA0
:103A00000A0000003EB504460D46002220210D4864
:103A1000FDF7EAFD0520FDF752FB4FF47A70012116
:103A20000B462246CDE9005102904F210648FDF792
:103A3000E1FE012220210348FDF7D6FD0C20FDF711
:103A40003EFB3EBD000C01403800002013B584B0A1
:103A50000446002220210E48FDF7C6FD0520FDF793
:103A60002EFB4FF47A70012105AA0B46CDE9002107
:103A7000029022464E210748FEF776F801222021C7
:103A80000348FDF7B1FD0C20FDF719FB06B010BD92
:103A9000000C01403800002010B588B004462021F9
:103AA0006846FCF768FB94F9002008A1684601F01D
:103AB0000DFB684600F062FD08A10948FCF766FBB3
:103AC00010B9012008B010BD0020FBE741542B4E77
:103AD000534F434C3D25640D0A0000004F4B00003E
:103AE0009008002070B592B004460D46164640215D
:103AF00002A8FCF740FB009694F900202B4608A191
:103B000002A801F0E3FA02A800F038FD09A10A4872
:103B1000FCF73CFB10B9012012B070BD0020FBE7A0
:103B200041542B4E534F434F3D25642C25732C2578
:103B3000640D0A004F4B00009008002010B50446A9
:103B400009A000F01BFD0EA10E48FCF71FFB08B9F1
:103B5000012010BD0CA10B48FCF718FBC0793038D0
:103B600040B220700020F4E741542B4E534F435293
:103B70003D53545245414D2C362C302C300D0A000B
:103B80004F4B0000900800202B4E534F43523A00F9
:103B900010B503A000F0F2FC0520FDF790FA10BD6F
:103BA00041542B464153544F46463D300D0A0000C8
:103BB00010B500F0D5FD0520FDF781FA10BD00001D
:103BC00010B506A000F0DAFC07A10A48FCF7DEFAFF
:103BD00008B9012010BD0020FCE7000041542B4330
:103BE000474154543F0D0A002B43474154543A3146
:103BF00000000000900800202DE9F34F85B0FFF78A
:103C0000DFFF04904FF0050809E0FFF7D9FF0490AB
:103C1000A8F101004FFA80F80120FDF756FA049848
:103C2000012802D1B8F1000FEFDCB8F1000F38D154
:103C30005C21F8A0FCF7CCFA28B15C21F5A0FCF7D8
:103C4000C7FA401C00E0F3A02F210090FCF7C0FA57
:103C500088B15C21EFA0FCF7BBFA28B15C21EDA094
:103C6000FCF7B6FA401C00E0EAA02F210090FCF718
:103C7000AFFA401C0BE05C21E6A0FCF7A9FA28B1E2
:103C80005C21E4A0FCF7A4FA401C00E0E1A0ED22D6
:103C900001460190E6A001F009FA012007B0BDE855
:103CA000F08F5C21DBA0FCF793FA28B15C21D9A04E
:103CB000FCF78EFA401C00E0D6A02F210090FCF704
:103CC00087FA88B15C21D3A0FCF782FA28B15C2185
:103CD000D0A0FCF77DFA401C00E0CEA02F21009080
:103CE000FCF776FA401C0BE05C21CAA0FCF770FAE6
:103CF00028B15C21C7A0FCF76BFA401C00E0C5A00E
:103D0000F12201460190CFA001F0D0F9FF200390ED
:103D100003A8FFF713FF8146052408E003A8FFF777
:103D20000DFF8146601E44B20120FDF7CEF9B9F1C6
:103D3000010F01D1002CF1DC002C37D15C21B5A0A2
:103D4000FCF746FA28B15C21B2A0FCF741FA401C0E
:103D500000E0B0A02F210090FCF73AFA88B15C2176
:103D6000ACA0FCF735FA28B15C21AAA0FCF730FA28
:103D7000401C00E0A7A02F210090FCF729FA401C6E
:103D80000BE05C21A3A0FCF723FA28B15C21A1A0E1
:103D9000FCF71EFA401C00E09EA040F20112014612
:103DA0000190ADA001F082F9012077E75C2199A094
:103DB000FCF70EFA28B15C2196A0FCF709FA401C2A
:103DC00000E094A02F210090FCF702FA88B15C215A
:103DD00090A0FCF7FDF928B15C218EA0FCF7F8F962
:103DE000401C00E08BA02F210090FCF7F1F9401C53
:103DF0000BE05C2187A0FCF7EBF928B15C2185A0E2
:103E0000FCF7E6F9401C00E082A001909DF90C301F
:103E10004FF48272014697A001F048F95C217DA021
:103E2000FCF7D6F928B15C217AA0FCF7D1F9401C47
:103E300000E078A02F210090FCF7CAF988B15C213E
:103E400074A0FCF7C5F928B15C2172A0FCF7C0F999
:103E5000401C00E06FA02F210090FCF7B9F9401C36
:103E60000BE05C216BA0FCF7B3F928B15C2169A0E1
:103E7000FCF7AEF9401C00E066A040F205120146D6
:103E8000019082A001F012F948F2C94286A103A86C
:103E9000FFF728FE824605250BE048F2C94282A1C1
:103EA00003A8FFF71FFE8246681E45B20120FDF7FA
:103EB0000CF9BAF1010F01D1002DEEDC002D3AD141
:103EC0005C2154A0FCF784F928B15C2151A0FCF7D7
:103ED0007FF9401C00E04FA02F210090FCF778F9FB
:103EE00088B15C214BA0FCF773F928B15C2149A093
:103EF000FCF76EF9401C00E046A02F210090FCF773
:103F000067F9401C0BE05C2142A0FCF761F928B185
:103F10005C2140A0FCF75CF9401C00E03DA04FF4A0
:103F20008B720146019064A001F0C0F803A8FFF76E
:103F3000B3FD0120B2E65C2136A0FCF749F928B1B7
:103F40005C2134A0FCF744F9401C00E031A02F2193
:103F50000090FCF73DF988B15C212EA0FCF738F900
:103F600028B15C212BA0FCF733F9401C00E029A00C
:103F70002F210090FCF72CF9401C0BE05C2125A0C0
:103F8000FCF726F928B15C2122A0FCF721F9401C9E
:103F900000E020A040F21B12014601904DA001F06C
:103FA00085F8052603A8DDE9051200F0D3F983465C
:103FB0000AE003A8DDE9051200F0CCF98346701E83
:103FC00046B20120FDF781F8BBF1010F01D1002EAF
:103FD000EFDC002E1DD15C210EA0FCF7F9F828B112
:103FE0005C210CA0FCF7F4F8401C00E009A02F2194
:103FF0000090FCF7EDF850B15C2106A0FCF7E8F862
:1040000030B15C2103A0FCF7E3F8401C72E077E0DC
:104010006EE090E02E2E5C696E7465726661636579
:104020005C496E745F51533130302E6300000000E4
:104030005B25733A25645D20B8BDD7C5CAA7B0DC3F
:104040000D0A00005B25733A25645D20B8BDD7C515
:10405000B3C9B9A60D0A00005B25733A25645D203B
:10406000B4B4BDA8BFCDBBA7B6CBCAA7B0DC0D0A00
:10407000000000005B25733A25645D20736F636B5D
:1040800065745F69643A25640D0A00005B25733A24
:1040900025645D20B4B4BDA8BFCDBBA7B6CBB3C962
:1040A000B9A60D0A000000003131322E3132352E12
:1040B00038392E38000000005B25733A25645D20F6
:1040C000C1ACBDD3B7FECEF1B6CBCAA7B0DC0D0AEA
:1040D000000000005B25733A25645D20C1ACBDD3B0
:1040E000B7FECEF1B6CBB3C9B9A60D0A00000000E9
:1040F000AFF2E0002F210090FCF76AF8401C0EE0C0
:104100005C21AFF2F000FCF763F830B15C21AFF254
:10411000FC00FCF75DF8401C01E0AFF208104FF422
:1041200096720146019071A000F0C0FF03A8FFF74E
:10413000B3FC0120B2E55C21AFF22810FCF748F88F
:1041400030B15C21AFF23410FCF742F8401C01E0C2
:10415000AFF240102F210090FCF73AF8A0B15C219B
:10416000AFF25010FCF734F830B15C21AFF25C10C4
:10417000FCF72EF8401C01E0AFF268102F210090F0
:10418000FCF726F8401C0EE05C21AFF27810FCF73B
:104190001FF830B15C21AFF28410FCF719F8401C15
:1041A00001E0AFF2901040F231120146019055A0AB
:1041B00000F07CFF052703A8FFF76EFC029008E0E3
:1041C00003A8FFF769FC0290781E47B20120FCF7B4
:1041D0007CFF0298012801D1002FF1DC002F40D193
:1041E0005C21AFF2D010FBF7F3FF30B15C21AFF2EE
:1041F000DC10FBF7EDFF401C01E0AFF2E8102F21CF
:104200000090FBF7E5FFA0B15C21AFF2F810FBF7DF
:10421000DFFF30B15C21AFF20420FBF7D9FF401C77
:1042200001E0AFF210202F210090FBF7D1FF401CDE
:104230000EE05C21AFF22420FBF7CAFF30B15C2115
:10424000AFF23020FBF7C4FF401C01E0AFF23C208E
:104250004FF4A1720146019030A000F027FF012029
:104260001CE55C21AFF25420FBF7B2FF30B15C21BA
:10427000AFF26020FBF7ACFF401C01E0AFF26C2016
:104280002F210090FBF7A4FFA0B15C21AFF27C20AE
:10429000FBF79EFF30B15C21AFF28820FBF798FF5F
:1042A000401C01E0AFF294202F210090FBF790FF1B
:1042B000401C0EE05C21AFF2A420FBF789FF30B177
:1042C0005C21AFF2B020FBF783FF401C01E0AFF2AE
:1042D000BC204FF4A3720146019017A000F0E6FE47
:1042E0000320FCF7ECFE0020D8E400005B25733AC5
:1042F00025645D20B7A2CBCDCAFDBEDDCAA7B0DC68
:104300000D0A00005B25733A25645D20B7A2CBCD72
:10431000CAFDBEDDB3C9B9A60D0A00005B25733A1C
:1043200025645D20B9D8B1D5BFCDBBA7B6CBCAA790
:10433000B0DC0D0A000000005B25733A25645D20A7
:10434000B9D8B1D5BFCDBBA7B6CBB3C9B9A60D0AF5
:10435000000000002DE9F04FADF5037D8046894651
:104360001446012000EB44001FFA80FACDF808A2A1
:10437000829800F009FF054651462846FBF7FBFEF0
:10438000002607E019F8062005EB460057A100F0CB
:104390009DFE761CA642F5DB4FF4007102A8FBF7E8
:1043A000EAFE0120CDE9005098F90020234651A1F2
:1043B00002A800F08BFE02A800F0E0F80120FCF754
:1043C00084FE4FF4007102A8FBF7D5FE98F9002097
:1043D000012350A102A800F079FE352707E002A8CA
:1043E00000F0CCF850480088093850490F5C302F55
:1043F00001D0312FF3D1312F35D15C214CA0FBF707
:10440000E7FE28B15C214AA0FBF7E2FE401C00E079
:1044100047A083462F21FBF7DBFE88B15C2144A037
:10442000FBF7D6FE28B15C2141A0FBF7D1FE401C72
:1044300000E03FA083462F21FBF7CAFE401C0BE0A3
:104440005C213BA0FBF7C4FE28B15C2138A0FBF740
:10445000BFFE401C00E036A00646D22231463BA0FB
:1044600000F024FE3CE05C2131A0FBF7B1FE28B156
:104470005C212FA0FBF7ACFE401C00E02CA0834683
:104480002F21FBF7A5FE88B15C2129A0FBF7A0FE38
:1044900028B15C2126A0FBF79BFE401C00E024A075
:1044A00083462F21FBF794FE401C0BE05C2120A0EB
:1044B000FBF78EFE28B15C211DA0FBF789FE401C96
:1044C00000E01BA00646D422314626A000F0EEFDF7
:1044D000284600F02BFE01200DF5037DBDE8F08F8E
:1044E000284600F023FE0020F6E700002530325871
:1044F0000000000041542B4E534F53443D25642C83
:1045000025642C25732C30783230302C25640D0A2C
:104510000000000041542B53455155454E43453D45
:1045200025642C25640D0A002A0000209008002034
:104530002E2E5C696E746572666163655C496E748B
:104540005F51533130302E63000000005B25733A19
:1045500025645D20BDD3CAD5CAFDBEDDB3C9B9A6E9
:104560000D0A00005B25733A25645D20BDD3CAD5D2
:10457000CAFDBEDDCAA7B0DC0D0A0000F8B50446CE
:1045800080215648FBF7F7FD00205549088020465A
:10459000FBF70EFE85B24FF47A732A462146514846
:1045A000FEF7DEFC00BF40F6B8304F4B80224F498B
:1045B00000904C48FEF754FB4B480088002816DD5D
:1045C0004649474A1288881847490A884749FBF7ED
:1045D000B9FD434800884449098808444049088097
:1045E00080214248FBF7C7FD00203F49088040A1D9
:1045F0003A48FBF7CBFD28B93EA13848FBF7C6FD8A
:104600000028D0D05C213DA0FBF7E2FD28B15C2161
:104610003AA0FBF7DDFD401C00E038A006462F2144
:10462000FBF7D6FD88B15C2134A0FBF7D1FD28B1A2
:104630005C2132A0FBF7CCFD401C00E02FA0064619
:104640002F21FBF7C5FD401C0BE05C212BA0FBF7E5
:10465000BFFD28B15C2129A0FBF7BAFD401C00E09A
:1046600026A005461D4B482229462BA000F01EFD22
:104670005C2122A0FBF7ACFD28B15C211FA0FBF759
:10468000A7FD401C00E01DA006462F21FBF7A0FD62
:1046900088B15C2119A0FBF79BFD28B15C2117A014
:1046A000FBF796FD401C00E014A006462F21FBF707
:1046B0008FFD401C0BE05C2110A0FBF789FD28B1A9
:1046C0005C210EA0FBF784FD401C00E00BA005461A
:1046D0004A22294617A000F0E9FCF8BD9008002006
:1046E0002A00002088010020280000201008002057
:1046F0004F4B00004552524F520000002E2E5C6975
:104700006E746572666163655C496E745F515331A6
:1047100030302E63000000005B25733A25645D2075
:10472000515331303020434D442052583A25730DB7
:104730000A0000005B25733A25645D202B2B2B2B90
:104740002B2B2B2B2B2B2B2B2B2B2B2B2B2B2B2BB9
:104750002B2B2B2B2B2B2B2B2B2B0D0A0D0A00007D
:1047600010B5012251030848FCF73EFF0520FCF775
:10477000A6FC00224FF400510348FCF735FF05204A
:10478000FCF79DFC10BD0000000C014000B585B099
:104790000020019002900390049000BF334880698C
:1047A00040F01000314988610846806900F010002F
:1047B000009000BF00BF00BF0846806940F02000A5
:1047C00088610846806900F02000009000BF00BFAB
:1047D00000BF0846806940F004008861084680698F
:1047E00000F00400009000BF00BF00BF08468069D1
:1047F00040F0080088610846806900F008000090D9
:1048000000BF00BF012210211948FCF7EDFE012274
:1048100029211848FCF7E8FE002243F2040115485C
:10482000FCF7E2FE1020019001200290002003908E
:104830000220049001A90E48FCF746FD43F22D002A
:10484000019001200290002003900220049001A911
:104850000848FCF739FD02200190002002900390E7
:1048600001A90448FCF730FD05B000BD001002406E
:1048700000080140000C014010B50B480B490860CE
:104880000B484860002109488160C1604FF48041B5
:104890000161002141618161C1610162FCF7C2FED9
:1048A00008B1FCF7A3FC10BD005400403800002004
:1048B000A086010010B50848084908604FF0FF3095
:1048C00048604FF4807105488160FEF703F808B135
:1048D000FCF78CFC10BD0000002800408C0000207C
:1048E00010B50E480E4908604FF4827048600021F0
:1048F0000B488160C160016141614FF400718161C9
:104900001021C16100210162416281620A21C162FC
:10491000FEF7EAF808B1FCF769FC10BD0030014071
:10492000A000002010B50B480B4908604FF4E1309F
:104930004860002108488160C16001610C2141612B
:1049400000218161C161FEF71FFA08B1FCF74EFC3E
:1049500010BD000000380140F800002010B50B48E1
:104960000B4908604FF416504860002108488160E8
:10497000C16001610C21416100218161C161FEF7CB
:1049800003FA08B1FCF732FC10BD000000440040FF
:104990004001002010B50B480B4908604FF4165039
:1049A0004860002108488160C16001610C214161BB
:1049B00000218161C161FEF7E7F908B1FCF716FC3F
:1049C00010BD0000004800408801002000BFFEE745
:1049D00000BFFEE77047000008B508490968C9082C
:1049E0004FF47A72B1FBF2F14143009100BF00BF76
:1049F00000994A1E00920029F9D108BD0C00002040
:104A0000014600BF080900EB8000420001F00F00E2
:104A10001044C0B270470146002203E0521CA1F1CD
:104A20000A00C1B20A29F9D2100741EA10607047A2
:104A30002DE9F04706468846002700240025A146B8
:104A4000F77B747BB57B00BF40E0012C0BD0032CBF
:104A500009D0052C07D0072C05D0082C03D00A2C30
:104A600001D00C2C0CD11F2D01D26D1C2CE00C2C74
:104A700002D0641C012527E0012401257F1C23E0CE
:104A8000042C05D0062C03D0092C01D00B2C06D108
:104A90001E2D01D26D1C17E0641C012514E0022CB0
:104AA00012D11C2D01D26D1C0EE01C2D08D1B8B204
:104AB00000F053F808B16D1C06E0641C012503E00A
:104AC0001D2D01D1641C012509F10109C145BCD38B
:104AD000F7737473B573EAB2E1B2384600F07CF84C
:104AE0003073BDE8F08770B504460025FCF782FD01
:104AF000054607E0FCF77EFD401BB0F57A7F01D943
:104B0000032070BD2068406800F020000028F1D02C
:104B10002068406840F01000216848600020F0E7FD
:104B200070B5044600252068406820F01000216818
:104B30004860FCF75FFD054607E0FCF75BFD401BA6
:104B4000B0F57A7F01D9032070BD2068406800F07D
:104B500020000028F1D00020F6E7014601F0030014
:104B600008B1002070476420B1FBF0F200FB121086
:104B700008B10120F6E74FF4C870B1FBF0F200FB7A
:104B8000121008B90120EDE70020EBE701460022F2
:104B900000230868006A82B20868406A83B243EA68
:104BA0000240704730B50146002200230024002057
:104BB0000D68AD69AAB20D68ED69ACB20D68AD695A
:104BC000ABB29A4205D00D68ED6963F31F452846E4
:104BD00001E044EA024030BDF0B504460B46002136
:104BE000002504F5FA61032B1BD2C3EBC30000EBD5
:104BF00003100926B0FBF6F01044001D4618481EAD
:104C000006EB90066427B0FBF7F0361A481EBF008B
:104C1000B0FBF7F030440726B0FBF6F706FB1705AC
:104C20001AE0C3EBC30000EB03100926B0FBF6F05B
:104C30001044001D084400EB91006426B1FBF6F619
:104C4000801B4FF4C876B1FBF6F63044801E072671
:104C5000B0FBF6F706FB1705E8B2F0BD70B50446E9
:104C60000D4600262046FFF73EFF08B101260AE068
:104C7000280C21680862A8B2216848622046FFF724
:104C80004FFF00B10126304670BD70B504460D4699
:104C900000262046FFF727FF08B101260AE0280C6E
:104CA00021688861A8B22168C8612046FFF738FFF3
:104CB00000B10126304670BD704710B5FDF740F8D1
:104CC00010BD00B593B0282109A8FBF754FA1421B0
:104CD00004A8FBF750FA0020009001900290039086
:104CE000092009904FF480300A9000200B90012099
:104CF0000D900F9002201090C10311914FF4E0111C
:104D0000129109A8FDF732FB08B1FCF76FFA0F20EA
:104D1000049002200590002006904FF480600790D8
:104D200000200890022104A8FDF7FCF908B1FCF767
:104D30005DFA01200090400201906846FDF75AF9A3
:104D400008B1FCF753FA13B000BD704700BF00BFB5
:104D500002680C3252E8002F22F4907102680C3283
:104D600042E80013002BF3D100BF00BF00BF026870
:104D7000143252E8002F22F001010268143242E896
:104D80000013002BF3D100BF016B01290ED100BF2E
:104D900000BF02680C3252E8002F22F010010268B6
:104DA0000C3242E80013002BF3D100BF202180F821
:104DB000421000210163704770B5044621680969FB
:104DC00021F44051E2681143226811612269A1680F
:104DD0001143626941EA02052168C96841F20C6227
:104DE000914329432268D1602168496921F44071C7
:104DF000A2691143226851612D4A2168914202D172
:104E0000FDF76CFA01E0FDF759FA00EBC00101EB88
:104E1000001162689200B1FBF2F100EBC00202EBFC
:104E2000001263689B00B2FBF3F26423B2FBF3F25F
:104E300002EBC20303EB0212A1EB8201322202EB6E
:104E400001116422B1FBF2F101F0F00100EBC002AC
:104E500002EB001263689B00B2FBF3F26423B2FB27
:104E6000F3F201EB021200EBC00101EB00116368E9
:104E70009B00B1FBF3F100EBC00303EB001366688A
:104E8000B600B3FBF6F36426B3FBF6F303EBC306FD
:104E900006EB0313A1EB8301322303EB011164231F
:104EA000B1FBF3F101F00F0111442268916070BD74
:104EB000003801402DE9F84304460D461746984650
:104EC000089E31E0701C70B3FCF794FBA0EB080067
:104ED000B04200D816B90320BDE8F8832068C06846
:104EE00000F00400F8B1802D1ED0402D1CD02068A9
:104EF0000068C0F3C000B0B100BF0020009020687F
:104F00000068009020684068009000BF00BF204605
:104F1000FFF71CFF0820606400BF002084F84000F9
:104F200000BF0120D8E7FFE7206800682840A842BA
:104F300001D1012000E00020B842C3D00020CBE71F
:104F40002DE9FF5F9AB005460E46144600224A4BF3
:104F500028463146FBF7A1FCCDE90401FBF72AFD09
:104F600019900022444B28463146FBF796FCCDE9C8
:104F7000000101F0D5FD00223F4BCDE90201FBF716
:104F80001AFC2A463346CDE90401FBF711FC07461B
:104F900088460022394B38464146FBF77EFCCDE976
:104FA0000401FBF707FD18900022344B38464146B8
:104FB000FBF773FCCDE9000101F0B2FD00222F4B9D
:104FC000CDE90201FBF7F7FB3A464346CDE9040180
:104FD000FBF7EEFBCDE91601199800F1080B002054
:104FE0001590BBF1180F03DBABF1180B01201590E6
:104FF000607830382178303901EB810100EB410ACB
:10500000E0783038A178303901EB810100EB4109BB
:10501000607930382179303901EB810100EB4100B2
:1050200014903422164907A8FBF78CF8159801282C
:1050300011D10AF1010A07A850F8290050450ADAEF
:105040004FF0010A09F10109B9F10C0F03DDD14656
:105050001498401C1490DDE91601CDE9040118985C
:105060004B46CDE900AB029006A1149A1D9800F0C2
:105070002DF81EB0BDE8F09F0088C34000005940E5
:10508000D47400083230253032642D253032642D3E
:105090002530326420253032643A253032643A2596
:1050A00030322E306600000000BFFEE70FB4054B23
:1050B00010B503A9044A029800F068F910BC5DF825
:1050C00014FB0000FD6B00082C0000200FB4084BFF
:1050D00010B504A902AA039800F058F9044602A9E1
:1050E000002000F0EAFC204610BC5DF814FB000034
:1050F000BB5A000802480068C0F302207047000055
:105100000CED00E010B5002804DB0A07130E054A79
:10511000135406E00A07140E034A00F00F031B1F86
:10512000D45410BD00E400E018ED00E030B528B123
:10513000144C031F002021680A4605E0084630BDD4
:105140009A4203D810465268002AF9D1002800D0AC
:1051500041680BD00468A3EB0005A54204D11B688D
:105160001C440346046002E0436000E023603AB15F
:105170001C68D51AA54203D115682C441C605268DE
:105180005A6030BD300000202DE9F04782460F4CB8
:1051900010480D4E0E4F001B4FF0000820F0070581
:1051A0004FF0010900221146504601F037FD00285A
:1051B00002D1306810B10020BDE8F0873C60C4E93E
:1051C0000058C6F80090EDE734000020740B002072
:1051D000300000207013002002E008C8121F08C130
:1051E000002AFAD170477047002001E001C1121F68
:1051F000002AFBD1704700002DE9FF5F82B000213B
:10520000DDE90430020DDDF840B0034318D044F668
:105210001050A2F2FF3242431514119801281FD0FA
:10522000A5EB0B00401C5FEA000A4FF000064E4F52
:10523000DFF83891B046504615D5CAF1000413E0A6
:10524000119801244AA3012801D16FEA0B010298A9
:10525000119AC0E90031C0E9024206B0BDE8F09FF2
:10526000CBF10000DFE704460021404A491842EB39
:105270000450CDE9001012E0E00707D032463B466B
:1052800040464946FBF797FA8046894632463B46F8
:1052900010461946FBF78FFA06460F466410002C9D
:1052A000EAD1DDE90401DDE90023BAF1000F06DAF5
:1052B000FBF781FA42464B46FBF77DFA05E0FBF728
:1052C000ECFA42464B46FBF7E8FA04460E4600224B
:1052D000284BFBF7A7FB03D84FF0FF30014607E050
:1052E0000022254B20463146FBF7BEF9FBF7EEFCCA
:1052F000102409E0002C0ADB0A220023FBF7C0FB84
:10530000039B30321A55641E50EA0102F2D1641C2C
:10531000039AC4F111031444119A012A03D0012203
:1053200008430DD10AE0084304D000204FF0110BD0
:10533000119072E7A3EB0B056D1E0DE05B4504DDDC
:105340004FF0000205F1010504E003DA4FF000021E
:10535000A5F10105002AECD002981199C0E90231AB
:10536000C0E9004579E70000000014400000F03F6C
:10537000300000000000F0430000E03F30380A2811
:1053800001D2012070470020704700002DE9FF4F37
:1053900095B09B468946064600250FE2252877D121
:1053A00000242746F84A0121059400E0044316F83A
:1053B000013F203B01FA03F01042F7D130782A2850
:1053C00011D06FF02F033078A0F13002092A16D8DF
:1053D000059A44F0020402EB820203EB42021044FD
:1053E000761C0590EFE759F8042B0592002A03DAA2
:1053F000504244F40054059044F00204761C307886
:105400002E2816D116F8010F44F004042A280DD0D6
:105410006FF02F023078A0F13003092B09D807EB89
:10542000870302EB4303C718761CF3E759F8047BA4
:10543000761C30786C280FD006DC4C2817D06828F2
:105440000DD06A2814D104E0742810D07A280FD126
:105450000DE044F400140AE044F4801401E044F444
:1054600040147278824202D104F58014761C761CB6
:10547000307866280BD013DC582877D009DC002858
:1054800075D04528F6D04628F4D047281AD19DE19A
:1054900018E0632835D0642879D0652812D195E1C9
:1054A000702873D008DC6728F1D069286FD06E2887
:1054B0000DD06F2806D1B5E073282CD0752875D093
:1054C000782874D05A46179990476D1C75E1C4F33B
:1054D0000250022809D003280DD0D9F80010042862
:1054E0000DD00D6009F1040967E1D9F80010EA1741
:1054F000C1E90052F6E7D9F800100D80F2E70D700F
:10550000F0E719F8041B8DF8001000208DF8010059
:10551000EA46012003E059F804AB4FF0FF30610781
:105520004FF0000102D40DE008F101018846B942B4
:105530000FDA8045F8DB1AF808100029F4D108E0EA
:1055400008F1010188468142FADB1AF808100029A7
:10555000F6D105985B46A0EB080721463846179A16
:1055600000F094FA284400EB080507E04DE029E13B
:105570000DE01AF8010B5A4617999047B8F1010847
:10558000F7D25B4621463846179A13E142E00A22D9
:105590000092C4F302524FF0000A022A08D059F8D0
:1055A00004CB032A4FEAEC710AD00DE029E02AE08F
:1055B00009F1070121F00702F2E802C1914609E072
:1055C0000FFA8CFC4FEAEC71042A03D14FFA8CFCE1
:1055D0004FEAEC71002907DA0A460021DCF1000CE1
:1055E00061EB02012D2202E0220504D52B228DF869
:1055F0000420012203E0E20701D02022F7E79046D1
:1056000059E00A2102E010220DE010214FF0000ABB
:1056100000910BE010224FF0000A44F00404082728
:10562000009203E008224FF0000A0092C4F30252F5
:10563000022A05D059F804CB0021032A08D009E03A
:1056400009F1070121F00702F2E802C1914605E0E5
:105650001FFA8CFC042A01D10CF0FF0C4FF000085B
:10566000220728D5702806D0009B83F0100353EA48
:105670000A0305D00EE040228DF80420012208E044
:105680005CEA010206D030228DF804208DF8050076
:1056900002229046009B83F0080353EA0A030AD1D2
:1056A0005CEA010201D1620705D530228DF80420A1
:1056B0004FF001087F1E582804D034A003900EA894
:1056C00002900DE036A0F9E753466046009AFBF7DA
:1056D000D7F984460398825C0298401E02900270BB
:1056E0005CEA0100F0D1029806A9081A00F1200A2C
:1056F000600702D524F4803400E00127574502DD1D
:10570000A7EB0A0000E0002000EB0A0100900598DA
:105710004144401A0590E00306D45B462146179A9F
:10572000059800F0B3F90544002706E001A85A46A1
:10573000C05D179990476D1C7F1C4745F6DBE00361
:105740000CD55B462146179A059800F09FF9054451
:1057500004E030205A46179990476D1C0099481E66
:1057600000900029F5DC08E0029802995A4600787A
:10577000491C0291179990476D1CBAF10001AAF1DA
:10578000010AF1DC65E10000092801003031323303
:10579000343536373839616263646566000000006D
:1057A0003031323334353637383941424344454657
:1057B0000000000000F058F90544761C30780028FD
:1057C0007FF4ECAD19B02846BDE8F08F620700D435
:1057D000062709F1070222F0070CFCE80223E14644
:1057E00003F000485FEA080C02D00FF2702C0DE0C5
:1057F0005FEA045C02D50FF2682C07E05FEAC47C24
:1058000002D00FF2602C01E0AFF2700C4FF0FF38C5
:1058100023F00043CDF850C065280CD006DC4528A5
:1058200009D046281DD047283DD13DE0662818D034
:1058300067287ED138E00021112F01DB112000E024
:10584000781CCDE9000106A90EA8FFF7D5FCDDE91B
:105850000F010E9A03910021009207F1010A0491B1
:105860004DE04FF000400097CDE9011006A90EA8C9
:10587000FFF7C2FCDDE90F0203920E9B1199002293
:10588000DDF80CA00093049211B9791C00EB010A19
:10589000B7EB0A0004D4C0F1FF3007F1010A04900D
:1058A000AAEB0700019044E0012F00DA0127002154
:1058B000112F01DD112000E03846CDE9000106A9D5
:1058C0000EA8FFF799FCDDE90F010E9A0391002164
:1058D00004910092BA4621070CD40399514500DA8D
:1058E0008A46BAF1010F05DD009AAAF10101515C67
:1058F000302908D0B84202DA10F1040F06DA01218B
:10590000CDE9011015E0AAF10101E9E7002805DC65
:10591000049901440491AAEB000102E0411C5145A5
:1059200000DD8A460499401A401C01904FF0004067
:105930000290200704D40198504501DBCDF8048083
:1059400000208DF84F0002980DF14F07B0F1004F85
:1059500025D02B200E9002984FF0020800280CDA78
:10596000404202902D200E9007E00A210298FBF79A
:1059700071F83031029007F8011DB8F10001A8F16B
:105980000108F2DC02980028EFD1791E0E98087009
:10599000307800F0200040F0450007F8020D12A812
:1059A000C01B00F107081498007800B1012000EB3B
:1059B0000A01019801EBE07105984144401A401E2C
:1059C0000590E00306D45B462146179A059800F03F
:1059D0005DF805441498007818B15A461799904715
:1059E0006D1CE00324D55B462146179A059800F00C
:1059F0004DF805441CE00498002807DBDDE90301AD
:105A0000884203DD0098405C179901E01799302027
:105A10005A469047049805F10105401C04900198EE
:105A2000401E019004D12E205A46179990476D1CB4
:105A3000BAF10001AAF1010ADDDC05E017F8010B5B
:105A40005A46179990476D1CB8F10001A8F101085A
:105A5000F4DC5B462146179A0598ABE62D00000062
:105A60002B000000200000002DE9F0410446002535
:105A70001E461746880404D405E039462020B04766
:105A80006D1C641EF9D52846BDE8F0812DE9F04172
:105A9000044600251E469046C80301D5302700E085
:105AA0002027880404D505E041463846B0476D1CE0
:105AB000641EF9D52846BDE8F0810A68531C0B60C6
:105AC0001070704770B505460C46002614B10DB134
:105AD000A54201D1002070BDAE6826B9AC606460FB
